:020000020000FC
:10000000D1C13CC03CC03CC03CC03CC03CC03CC07A
:100010003CC03CC03CC03CC03CC03CC03CC051C0EB
:1000200051C051C051C000FF7E7B2030392F313884
:100030002F323030382030313A3231414D20576143
:1000400074657220656C656374726F6C7973697323
:1000500020636F6E74726F6C206D6F64756C6520B9
:10006000636F707972696768742032303038204D60
:10007000696B652041726E6F73207D7E18951895AF
:100080001895189518951895189518951895189508
:100090001895189518950F930FB70F9300E004BBB0
:1000A00002BF8894881F991F28F0C6980F910FBF30
:1000B0000F9118958160C69A0F910FBF0F911895F7
:1000C0001895189518951895189500241124222430
:1000D0003324442455246624772488249924AA248C
:1000E000BB24CC24DD24EE24FF2400271127222763
:1000F0003327442755276627772788279927AA2754
:10010000BB27CC27DD27EE27FF270895202020439B
:100110004F4E54524F4C4C455220202020204E4FE1
:100120005420444554454354454420200AB317EF16
:10013000012B0ABB8CD08BD08AD003E013E053D0C4
:1001400086D003E050D075D003E04DD072D002E0ED
:100150004AD07DD001E011E046D06BD002E043D020
:1001600076D008E240D065D00CE03DD062D0089552
:1001700002E011E038D06BD0F0E0E2E620E110E0E0
:10018000019131D056D02A95D9F700EC11E02BD04F
:1001900050D020E110E0019126D04BD02A95D9F71C
:1001A000089520E108E111E01ED043D02A952030C7
:1001B000C9F70895F1E0ECE000E911E014D039D07E
:1001C00020E110E005910FD034D02A95D9F700ED49
:1001D00011E009D02ED020E110E0059104D029D003
:1001E0002A95D9F708951F932F933F933BB3397006
:1001F00011FD0295202F207F10FF2260232B2BBBA7
:10020000DA9ADA9811FD03C002951260F3CF3F919C
:100210002F911F910895F0E0E4EC00E210E21193B9
:100220000A95E9F708950F9307E10A95F1F70F9101
:1002300008950F931F9303EA12E00A95F1F71A95B8
:10024000E1F70000000000001F910F9108950F9347
:100250001F93002713E30A95F1F71A95E1F70EEEC5
:100260000A95F1F71F910F9108950F931F932F9304
:100270000091820000938400009183000093850028
:10028000C09AC19AC198222708E0889416B312FF39
:1002900008942795C098C09A0A95C1F720938200C8
:1002A000222708E016B312FF08942795C098C09A39
:1002B0000A95C1F720938300009182001091840079
:1002C000202F2127022300938600009183001091A4
:1002D0008500202F21270223009387002F911F9153
:1002E0000F910895B99AB89ABA980895F894E19937
:1002F000FECF0F9300E00CBB0F912FBB1EBB0DBBBD
:10030000E29AE19A78940895E199FECF2FBB1EBB43
:10031000E09A0DB308950000A00FD0073505E8035B
:1003200020039B023B02F401BC0190016C014D01D2
:1003300034011E010B01FA00EB00DE00D300C800FF
:100340000000401FA00F6B0AD00740063505770458
:10035000E80379032003D7029B0267023B021502E0
:10036000F401D701BC01A50190010000F401FA00DD
:10037000A7007D006400530047003F0038003200B2
:100380002D002A002600240022001F001D001C0052
:100390001A001900FFFFFFFFFFFFFFFF5F5F5F5FB6
:1003A0005F5F5F5F0FE511E00DBF1EBF8EDE00E0F7
:1003B00004BB02BF00E003BB02BB00E805BB01E0D9
:1003C00003BF00E032D101E109BF78948BDFAEDEDC
:1003D000D89A21DF1BD1E6D0EDDEBE9ACC24C8DE50
:1003E00044DF10918300107F103009F402C03AD12D
:1003F000F6CF109186000BB321E013FD0227177F83
:100400000BBB12FF0BC00C2D003021F09C2CCC2418
:10041000002702C0C92C0C2D08D11B7F062F14FD0C
:1004200003950B3208F000E01F7E602F062F15FDAC
:100430000A9500300CF40AE21F7D602F0E2D16FD88
:100440000A9500300CF400E01F7BE02E0E2D17FD06
:100450000395003108F00FE01F77E02E11FF11C067
:10046000D0E0C2E66096EF92CE0D08F4D3950881F5
:100470000F3F11F00FEF01C00FE5EF9008831D7FD4
:1004800091D0109386001091870012FF08C0CA9483
:100490000C2D003014F40EE3C02EC7D01B7F13FFC9
:1004A00008C0C3940C2D0F3310F00027CC24BDD00E
:1004B000177F11FF15C01F932227162F160F160F37
:1004C00023DFB02E139520DFA02E13951DDF0F33F1
:1004D00008F00EE3C02E002FA8D07ED01F911D7F04
:1004E00010FF0FC01F932227162F160F160F0B2D6C
:1004F000FDDE13950A2DFADE13950C2DF7DE1F9104
:100500001E7F10938700F0E0E2E60E2DF0FC006104
:10051000E00F00811091860011FD03951D7F10FDF5
:100520000A951E7F109387000083F0E0E2E60B2D12
:100530000A2951F00C2D002339F0043608F43197C4
:100540000A3008F431970BC00FE4019306E40193DD
:1005500006E4019300E20193019301930AC093D052
:100560000BE4019308E601930AE7019300E201938B
:100570000193F0E0E2E63D96062F85D0F0E0E2E65A
:1005800038966A300CF4319600E2019306E4019348
:1005900009E401930CE4019305E4019300E2019363
:1005A0001ECF14CFD0E0C2E6609610E82227099152
:1005B000039509F4212B1695D1F7B22E10E82227C6
:1005C0000991039509F4212B1695D1F7A22EF894E1
:1005D0009B2D8A2D78940895D0E0C2E6609610E8AD
:1005E0000FE52B2D212309F00FEF09931695C1F785
:1005F00010E80FE52A2D212309F00FEF0993169536
:10060000C1F7F8949B2D8A2D789408950F931F932A
:10061000F3E0E4E9D0E0C2E6609600E115911993B9
:100620000A95E1F71F910F9108950F93002703BFDB
:100630000F91002391F0F3E0E6E1000FE00F08F4E2
:10064000F39500E004BB02BF01E003BF1F930591D7
:10065000159112BB03BB1F91089500E004BB02BFBC
:10066000C69808959EDD01DE10918300107F103042
:10067000D1F708950F930D2D053108F004E103958E
:10068000D02E0F91089510E024E631E5021B10F002
:100690001395FCCF020F10631193231B33271127EF
:1006A0002950A0F7089508955B7F0F70055002F45C
:1006B00008955D7F772311F07A9504C019F011F049
:1006C00002D074E10895DD27CC270770003019F0BF
:1006D00064960A95E9F7F7E0E0E1EC0F08F4F3958A
:1006E000FD0F089551FFFECF089554FFFFCF0895E9
:1006F00051FFFECF5061F6DF5D7F09F0F9CF51FF6A
:10070000FECF5061EFDF5D7F09F0F9CF5F7E089586
:1007100014140A0A0A0A0A0A0A0A0A0A0A0A0A0A25
:040720000A2814800F
:00000001FF
